:020000040800F2
:10000000000002200D310008693100086931000844
:1000100069310008693100086931000800000000FA
:10002000000000000000000000000000693100082E
:1000300069310008000000006931000869310008DA
:100040006931000869310008693100086931000828
:100050006931000869310008693100086931000818
:100060006931000869310008693100086931000808
:1000700069310008693100086931000869310008F8
:1000800069310008693100086931000869310008E8
:1000900069310008693100086931000869310008D8
:1000A00069310008693100086931000869310008C8
:1000B00069310008693100086931000869310008B8
:1000C00069310008693100086931000869310008A8
:1000D00069310008F503000869310008693100083A
:1000E0006931000869310008693100086931000888
:1000F0006931000869310008693100086931000878
:100100006931000869310008693100086931000867
:100110006931000869310008693100086931000857
:100120006931000869310008693100086931000847
:100130006931000869310008693100086931000837
:100140006931000869310008693100086931000827
:100150006931000869310008693100086931000817
:100160006931000869310008693100086931000807
:1001700069310008693100086931000869310008F7
:08018000693100086931000833
:1001880010B540F22C04C2F20004237863B940F29F
:100198000000C0F2000028B143F28C10C0F6000045
:1001A800AFF300800121217010BD00BF08B540F2F7
:1001B8000003C0F200034BB143F28C1040F230014F
:1001C800C0F60000C2F20001AFF3008040F2280040
:1001D800C2F20000016829B140F20003C0F2000336
:1001E80003B1984708BD00BF80B483B000AF786002
:1001F80000BF7B68002B0CBF00220122D2B203F1A2
:10020800FF337B60002AF4D107F10C07BD4680BCA0
:10021800704700BF80B588B000AF4FF001004FF0C5
:10022800010101F045FA4FF400304FF0010101F0EF
:10023800BDFA4FF00C03BB614FF002033B774FF060
:1002480002037B774FF00003BB774FF00103FB7786
:100258004FF00000C4F2020007F11803194600F03D
:10026800AFFC4FF00000C4F202004FF002014FF063
:10027800070200F033FE4FF00000C4F202004FF016
:1002880003014FF0070200F029FE4FF41653BB603C
:100298004FF00003BB814FF00003FB814FF00003D8
:1002A8003B824FF00003BB824FF00C037B824FF47C
:1002B8008840C4F2000007F10803194601F0A8FDC0
:1002C8004FF48840C4F2000040F225514FF001027B
:1002D80002F004F94FF026033B714FF000037B71E5
:1002E8004FF00003BB714FF00103FB7107F10403EA
:1002F800184600F0D1FA4FF48840C4F200004FF0DD
:10030800010101F0C1FE07F12007BD4680BD00BF15
:1003180080B582B000AF4FF008004FF0010101F046
:10032800C7F94FF470433B604FF001033B714FF046
:1003380002037B714FF00003BB714FF00003FB71A8
:100348004FF44060C4F202003B46194600F038FC06
:1003580007F10807BD4680BD80B582B000AF786060
:10036800396028E000BF7B681B889BB203F040031C
:10037800002BF8D04FF44063C4F202034FF400425C
:100388001A833B681B78DBB27868194601F0FCFEDB
:100398004CF2C060C0F22D00FFF726FF4FF4406317
:1003A800C4F202034FF400425A833B681B783B684F
:1003B80003F101033B603B681B78DBB2002BD1D112
:1003C80007F10807BD4680BD80B500AFFFF7A0FF65
:1003D800FFF720FF4FF48840C4F2000043F26C118D
:1003E800C0F60001FFF7B8FFF4E700BF80B582B0A0
:1003F80000AF4FF48840C4F2000040F2255102F0EB
:10040800F1F80346002B3DD04FF48843C4F20003B3
:100418009B889BB2FB71FB790A2B22D040F24803E0
:10042800C2F200031B78DBB25BB2002B19DB40F28F
:100438004803C2F200031B781A4640F24C03C2F28A
:100448000003F979995440F24803C2F200031B787B
:1004580003F10103DAB240F24803C2F200031A7052
:1004680010E040F24803C2F200034FF000021A7095
:100478004FF48840C4F2000040F24C01C2F200017F
:10048800FFF76AFF07F10807BD4680BD80B500AFDA
:100498004FF46053C4F202034FF46052C4F20202F4
:1004A800126842F001021A604FF46053C4F202036A
:1004B8004FF000029A604FF46053C4F202034FF405
:1004C8006052C4F20202126822F0847222F480326E
:1004D8001A604FF46053C4F2020343F21002C2F2EE
:1004E80000425A604FF46053C4F202034FF4605262
:1004F800C4F20202126822F480221A604FF4605398
:10050800C4F202034FF00002DA6000F0C1F84FF4C1
:100518006D43CEF200034FF000629A6080BD00BFC9
:1005280080B487B000AF4FF000033B614FF0000389
:100538007B614FF00203FB604FF00003BB604FF09C
:1005480002037B604FF46053C4F202039B6803F01C
:100558000C033B613B69042B0DD0082B15D0002BF5
:1005680069D140F20403C2F200034FF41052C0F202
:10057800F4021A6069E040F20403C2F200034FF487
:100588009052C0F27A021A605FE04FF46053C4F2EE
:1005980002035B6803F480034FEA9353BB604FF494
:1005A8006053C4F202035B6803F03F037B60BB68DF
:1005B800002B14D04FF49053C0F27A037A68B3FB3F
:1005C800F2F24FF46053C4F20203596847F6C0735D
:1005D8000B404FEA931303FB02F37B6113E04FF4E4
:1005E8001053C0F2F4037A68B3FBF2F24FF460538D
:1005F800C4F20203596847F6C0730B404FEA9313DD
:1006080003FB02F37B614FF46053C4F202035B689F
:1006180003F440334FEA134303F101034FEA430362
:10062800FB607A69FB68B2FBF3F240F20403C2F2A2
:1006380000031A6009E040F20403C2F200034FF419
:100648001052C0F2F4021A6000BF4FF46053C4F2B3
:1006580002039B6803F0F0034FEA131240F2080309
:10066800C2F200039B5CDBB23B6140F20403C2F2BE
:1006780000031A683B6922FA03F240F20403C2F24B
:1006880000031A6007F11C07BD4680BC704700BF15
:1006980080B483B000AF4FF000037B604FF00003DD
:1006A8003B604FF46053C4F202034FF46052C4F24B
:1006B8000202126842F480321A604FF46053C4F2A6
:1006C80002031B6803F400333B607B6803F10103FA
:1006D8007B603B68002B03D17B68B3F5A06FECD13E
:1006E8004FF46053C4F202031B6803F40033002B79
:1006F80003D04FF001033B6002E04FF000033B6082
:100708003B68012B40F082804FF46053C4F202032F
:100718004FF46052C4F20202126C42F080521A6422
:100728004FF4E043C4F200034FF4E042C4F2000285
:10073800126842F480421A604FF46053C4F2020314
:100748004FF46052C4F2020292689A604FF4605308
:10075800C4F202034FF46052C4F20202926842F4F7
:1007680000429A604FF46053C4F202034FF460529F
:10077800C4F20202926842F4A0529A604FF46053A5
:10078800C4F2020345F20842C0F240725A604FF4C4
:100798006053C4F202034FF46052C4F202021268BA
:1007A80042F080721A6000BF4FF46053C4F2020333
:1007B8001B6803F00073002BF6D04FF47053C4F29B
:1007C800020340F205621A604FF46053C4F2020358
:1007D8004FF46052C4F20202926822F003029A6057
:1007E8004FF46053C4F202034FF46052C4F20202A1
:1007F800926842F002029A6000BF4FF46053C4F25C
:1008080002039B6803F00C03082BF6D14FF46053E6
:10081800C4F202034FF46052C4F20202926822F456
:1008280000029A604FF46053C4F202034FF440523E
:10083800C5F20002C3F884204FF46053C4F20203E7
:100848004FF46052C4F20202126842F080621A60E9
:1008580000BF4FF46053C4F202031B6803F0006347
:10086800002BF6D007F10C07BD4680BC704700BFCF
:1008780080B483B000AF78604FF46D43CEF20003CC
:100888007A6842F0BE6242F42022DA6007F10C076F
:10089800BD4680BC704700BF80B485B000AF7860AB
:1008A8004FF00003FB734FF00003BB734FF00F03CF
:1008B8007B737B68DB78002B45D04FF46D43CEF219
:1008C8000003DB686FEA030303F4E0634FEA1323D2
:1008D800FB73FB7BC3F10403BB737A7BFB7B42FA9C
:1008E80003F37B737B685B781A46BB7B02FA03F3DE
:1008F800FB737B689A787B7B1340DAB2FB7B1343EC
:10090800FB73FB7B4FEA0313FB734FF46143CEF297
:1009180000037A6812789B18FA7B83F800234FF457
:100928006143CEF200037A6812784FEA5212D2B2CB
:100938007968097801F01F014FF0010000FA01F110
:1009480043F8221014E04FF46143CEF200037A68B2
:1009580012784FEA5212D2B27968097801F01F0171
:100968004FF0010000FA01F102F1200243F82210D1
:1009780007F11407BD4680BC704700BF80B483B040
:1009880000AF786039604FF46D43CEF200033A68E7
:1009980022F0604222F07F0279680A439A6007F1E8
:1009A8000C07BD4680BC704780B483B000AF0246D8
:1009B8000B46FA71BB71BB79002B0CD04FF46D4319
:1009C800CEF200034FF46D42CEF200021169FA79BB
:1009D8000A431A610DE04FF46D43CEF200034FF461
:1009E8006D42CEF200021169FA796FEA02020A40FA
:1009F8001A6107F10C07BD4680BC704780B483B00C
:100A080000AF78607B68042B0CD14EF21003CEF255
:100A180000034EF21002CEF20002126842F0040205
:100A28001A600BE04EF21003CEF200034EF21002F1
:100A3800CEF20002126822F004021A6007F10C07D5
:100A4800BD4680BC704700BF80B582B000AF7860FB
:100A58007A684FF00003C4F202039A420CD14FF0B7
:100A680001004FF0010100F0F5FE4FF001004FF0DA
:100A7800000100F0EFFE9EE07A684FF48063C4F254
:100A880002039A420CD14FF002004FF0010100F02E
:100A9800E1FE4FF002004FF0000100F0DBFE8AE0BB
:100AA8007A684FF40063C4F202039A420CD14FF003
:100AB80004004FF0010100F0CDFE4FF004004FF0AC
:100AC800000100F0C7FE76E07A684FF44063C4F294
:100AD80002039A420CD14FF008004FF0010100F0D8
:100AE800B9FE4FF008004FF0000100F0B3FE62E0DD
:100AF8007A684FF48053C4F202039A420CD14FF043
:100B080010004FF0010100F0A5FE4FF010004FF06B
:100B1800000100F09FFE4EE07A684FF4A053C4F243
:100B280002039A420CD14FF020004FF0010100F06F
:100B380091FE4FF020004FF0000100F08BFE3AE0EC
:100B48007A684FF4C053C4F202039A420CD14FF0B2
:100B580040004FF0010100F07DFE4FF040004FF0E3
:100B6800000100F077FE26E07A684FF4E053C4F203
:100B780002039A420CD14FF080004FF0010100F0BF
:100B880069FE4FF080004FF0000100F063FE12E0B4
:100B98007A684FF40053C4F202039A420BD14FF41F
:100BA80080704FF0010100F055FE4FF480704FF057
:100BB800000100F04FFE07F10807BD4680BD00BFE9
:100BC80080B487B000AF786039604FF000037B6174
:100BD8004FF000033B614FF00003FB604FF0000350
:100BE8007B6186E07B694FF0010202FA03F33B6107
:100BF8003B681A683B691340FB60FA683B699A4294
:100C080073D17B681A687B694FEA43034FF003018D
:100C180001FA03F36FEA03031A407B681A607B68E2
:100C28001A683B681B7919467B694FEA430301FA46
:100C380003F31A437B681A603B681B79012B03D0C6
:100C48003B681B79022B34D17B689A687B694FEA31
:100C580043034FF0030101FA03F36FEA03031A4059
:100C68007B689A607B689A683B685B7919467B6900
:100C78004FEA430301FA03F31A437B689A607B68DF
:100C88005A687B699BB24FF0010101FA03F36FEADE
:100C980003031A407B685A607B685A683B689B79F3
:100CA80019467B699BB201FA03F39BB21A437B682E
:100CB8005A607B68DA687B699BB24FEA43034FF05E
:100CC800030101FA03F36FEA03031A407B68DA6051
:100CD8007B68DA683B68DB7919467B694FEA43032E
:100CE80001FA03F31A437B68DA607B6903F10103B5
:100CF8007B617B690F2B7FF675AF07F11C07BD463B
:100D080080BC704780B483B000AF78607B684FF6D2
:100D1800FF721A607B684FF000021A717B684FF00F
:100D280000025A717B684FF000029A717B684FF09D
:100D38000002DA7107F10C07BD4680BC704700BF9E
:100D480080B485B000AF78600B467B804FF4803369
:100D5800FB607A88FB681343FB60FA687B68DA619A
:100D68007A887B68DA61FA687B68DA617B68DB69B4
:100D7800FB607B68DB69FB6007F11407BD4680BC3C
:100D8800704700BF80B485B000AF78600B467B80A9
:100D98004FF00003FB737B681A697B881340002BB4
:100DA80003D04FF00103FB7302E04FF00003FB7325
:100DB800FB7B184607F11407BD4680BC704700BF8F
:100DC80080B483B000AF78607B681B699BB218461B
:100DD80007F10C07BD4680BC704700BF80B485B0E2
:100DE80000AF78600B467B804FF00003FB737B6895
:100DF8005A697B881340002B03D04FF00103FB7323
:100E080002E04FF00003FB73FB7B184607F1140761
:100E1800BD4680BC704700BF80B483B000AF786027
:100E28007B685B699BB2184607F10C07BD4680BC1E
:100E3800704700BF80B483B000AF78600B467B80FA
:100E48007B687A881A8307F10C07BD4680BC704717
:100E580080B483B000AF78600B467B807B687A886B
:100E68005A8307F10C07BD4680BC704780B483B035
:100E780000AF786013460A467A807B707B78002B37
:100E880003D07B687A881A8302E07B687A885A8361
:100E980007F10C07BD4680BC704700BF80B483B023
:100EA80000AF78600B467B807A887B685A6107F1CF
:100EB8000C07BD4680BC704780B483B000AF786033
:100EC8000B467B807B685A697B885A407B685A61ED
:100ED80007F10C07BD4680BC704700BF80B485B0E1
:100EE80000AF786013460A467A807B704FF00003A3
:100EF800FB604FF00003BB607A787B8803F0070340
:100F08004FEA830302FA03F3FB607B884FEAD303BB
:100F18009BB21A467B884FEAD3039BB219467B687B
:100F280001F1080153F821107B8803F007034FEA09
:100F380083034FF00F0000FA03F36FEA030319402D
:100F48007B6802F1080243F822107B884FEAD3033A
:100F58009BB21A467B6802F1080253F82220FB680C
:100F68001343BB607B884FEAD3039BB21A467B6866
:100F780002F10802B96843F8221007F11407BD46C8
:100F880080BC704780B400AF4FF46053C4F20203D2
:100F98004FF46052C4F20202126842F001021A6071
:100FA8004FF46053C4F202034FF000029A604FF40A
:100FB8006053C4F202034FF46052C4F20202126892
:100FC80022F0847222F480321A604FF46053C4F223
:100FD800020343F21002C2F200425A604FF4605317
:100FE800C4F202034FF46052C4F20202126822F4FF
:100FF80080221A604FF46053C4F202034FF00002DB
:10100800DA60BD4680BC704780B483B000AF034649
:10101800FB7143F60203C4F202034FF000021A7098
:1010280043F60203C4F20203FA791A7007F10C07B7
:10103800BD4680BC704700BF80B582B000AF4FF09E
:1010480000033B604FF00003FB714FF00003BB71DE
:101058004FF0310000F0D2FD0346BB713B6803F14D
:1010680001033B603B68B3F5A06F02D0BB79002B4E
:10107800EED04FF0310000F0C1FD0346002B03D045
:101088004FF00103FB7102E04FF00003FB71FB79A5
:10109800184607F10807BD4680BD00BF80B485B07B
:1010A80000AF0346FB714FF00003FB604FF4605341
:1010B800C4F202031B68FB60FB6823F0F803FB60C3
:1010C800FB794FEAC303FA681343FB604FF460539C
:1010D800C4F20203FA681A6007F11407BD4680BC1F
:1010E800704700BF80B483B000AF0346FB714FF078
:1010F8000003C4F24723FA791A6007F10C07BD46CA
:1011080080BC704780B483B000AF0346FB7143F6E0
:101118007003C4F202034FF000021A7043F6700322
:10112800C4F202034FF000021A70FB79012B02D0BF
:10113800042B08D00FE043F67003C4F202034FF00B
:1011480001021A7008E043F67003C4F202034FF07C
:1011580005021A7000E000BF07F10C07BD4680BC0D
:10116800704700BF80B483B000AF0346FB714FF4F3
:101178006863C4F24723FA791A6007F10C07BD4681
:1011880080BC704780B485B000AFF860B9607A6001
:101198003B604FF46053C4F202037A684FEA82114D
:1011A800BA6811433A684FEA520202F1FF324FEA35
:1011B80002421143FA681143BA694FEA02620A43CC
:1011C8005A6007F11407BD4680BC704780B483B0ED
:1011D80000AF0346FB714FF06003C4F24723FA796E
:1011E8001A6007F10C07BD4680BC704780B483B015
:1011F80000AF786039604FF46053C4F202037A6834
:101208004FEA82113A684FEA02720A43C3F884200F
:1012180007F10C07BD4680BC704700BF80B483B09F
:1012280000AF0346FB714FF06803C4F24723FA7915
:101238001A6007F10C07BD4680BC704780B483B0C4
:1012480000AF0346FB714FF04C03C4F24723FA7911
:101258001A6007F10C07BD4680BC704780B485B0A2
:1012680000AF786039604FF00003FB604FF46053C3
:10127800C4F202039B68FB60FB6823F0EC63FB602D
:101288007A683B681343FA681343FB604FF4605372
:10129800C4F20203FA689A6007F11407BD4680BCDD
:1012A800704700BF80B485B000AF786039604FF0F8
:1012B8000003FB604FF46053C4F202039B68FB60B9
:1012C800FB6823F07843FB607A683B681343FA684D
:1012D8001343FB604FF46053C4F20203FA689A6048
:1012E80007F11407BD4680BC704700BF80B485B0C5
:1012F80000AF78604FF00003FB604FF46053C4F216
:1013080002039B68FB60FB6823F00303FB60FA6839
:101318007B681343FB604FF46053C4F20203FA681E
:101328009A6007F11407BD4680BC704780B400AFCF
:101338004FF46053C4F202039B68DBB203F00C0362
:10134800DBB21846BD4680BC704700BF80B485B08C
:1013580000AF78604FF00003FB604FF46053C4F2B5
:1013680002039B68FB60FB6823F0F003FB60FA68EC
:101378007B681343FB604FF46053C4F20203FA68BE
:101388009A6007F11407BD4680BC704780B485B0E9
:1013980000AF78604FF00003FB604FF46053C4F275
:1013A80002039B68FB60FB6823F4E053FB60FA6868
:1013B8007B681343FB604FF46053C4F20203FA687E
:1013C8009A6007F11407BD4680BC704780B485B0A9
:1013D80000AF78604FF00003FB604FF46053C4F235
:1013E80002039B68FB60FB6823F46043FB607B6837
:1013F8004FEAC303FA681343FB604FF46053C4F227
:101408000203FA689A6007F11407BD4680BC70476A
:1014180080B489B000AF78604FF00003BB614FF033
:1014280000037B614FF00003FB614FF002033B6157
:101438004FF00003FB604FF00203BB604FF46053B2
:10144800C4F202039B6803F00C03BB61BB69042B65
:101458000AD0082B0FD0002B60D17A684FF41053B4
:10146800C0F2F403136060E07A684FF49053C0F25E
:101478007A03136059E04FF46053C4F202035B68C7
:1014880003F480034FEA9353FB604FF46053C4F2B4
:1014980002035B6803F03F03BB60FB68002B14D0BA
:1014A8004FF49053C0F27A03BA68B3FBF2F24FF4E8
:1014B8006053C4F20203596847F6C0730B404FEA01
:1014C800931303FB02F3FB6113E04FF41053C0F2D4
:1014D800F403BA68B3FBF2F24FF46053C4F20203A8
:1014E800596847F6C0730B404FEA931303FB02F3A6
:1014F800FB614FF46053C4F202035B6803F44033AA
:101508004FEA134303F101034FEA43033B61FA69CE
:101518003B69B2FBF3F27B681A6006E07A684FF425
:101528001053C0F2F403136000BF4FF46053C4F2C9
:1015380002039B6803F0F003BB61BB694FEA131316
:10154800BB6140F21803C2F20003BA699B181B780A
:10155800DBB27B617B681A687B6922FA03F27B68DD
:101568005A604FF46053C4F202039B6803F4E053DB
:10157800BB61BB694FEA9323BB6140F21803C2F217
:101588000003BA699B181B78DBB27B617B685A68D9
:101598007B6922FA03F27B689A604FF46053C4F2C5
:1015A80002039B6803F46043BB61BB694FEA533392
:1015B800BB6140F21803C2F20003BA699B181B789A
:1015C800DBB27B617B685A687B6922FA03F27B682D
:1015D800DA6007F12407BD4680BC704780B485B047
:1015E80000AF78604FF00003FB607B6803F4407342
:1015F800B3F5407F17D14FF46053C4F202039B68E0
:10160800FB60FB6823F4F813FB607B6823F07043EE
:1016180023F44073FA681343FB604FF46053C4F239
:101628000203FA689A604FF46053C4F202034FF45D
:101638006052C4F20202116F7A684FEA02524FEA0E
:1016480012520A431A6707F11407BD4680BC704757
:1016580080B483B000AF0346FB7140F63C63C4F22C
:101668004723FA791A6007F10C07BD4680BC70471A
:1016780080B483B000AF0346FB714FF46463C4F2D7
:101688004723FA791A6007F10C07BD4680BC7047FA
:1016980080B483B000AF78604FF4AE73C4F24723D0
:1016A8007A681A6007F10C07BD4680BC704700BF16
:1016B80080B483B000AF78600B46FB70FB78002BDA
:1016C8000CD04FF46053C4F202034FF46052C4F2DA
:1016D8000202116B7A680A431A630DE04FF46053F3
:1016E800C4F202034FF46052C4F20202116B7A682A
:1016F8006FEA02020A401A6307F10C07BD4680BC74
:10170800704700BF80B483B000AF78600B46FB70B1
:10171800FB78002B0CD04FF46053C4F202034FF453
:101728006052C4F20202516B7A680A435A630DE0B0
:101738004FF46053C4F202034FF46052C4F2020241
:10174800516B7A686FEA02020A405A6307F10C0784
:10175800BD4680BC704700BF80B483B000AF7860DE
:101768000B46FB70FB78002B0CD04FF46053C4F28F
:1017780002034FF46052C4F20202916B7A680A4382
:101788009A630DE04FF46053C4F202034FF46052C1
:10179800C4F20202916B7A686FEA02020A409A6305
:1017A80007F10C07BD4680BC704700BF80B483B00A
:1017B80000AF78600B46FB70FB78002B0CD04FF421
:1017C8006053C4F202034FF46052C4F20202116C77
:1017D8007A680A431A640DE04FF46053C4F20203B6
:1017E8004FF46052C4F20202116C7A686FEA020286
:1017F8000A401A6407F10C07BD4680BC704700BF59
:1018080080B483B000AF78600B46FB70FB78002B88
:101818000CD04FF46053C4F202034FF46052C4F288
:101828000202516C7A680A435A640DE04FF460531F
:10183800C4F202034FF46052C4F20202516C7A6897
:101848006FEA02020A405A6407F10C07BD4680BCE1
:10185800704700BF80B483B000AF78600B46FB7060
:10186800FB78002B0CD04FF46053C4F202034FF402
:101878006052C4F2020211697A680A431A610DE0E3
:101888004FF46053C4F202034FF46052C4F20202F0
:1018980011697A686FEA02020A401A6107F10C07B7
:1018A800BD4680BC704700BF80B483B000AF78608D
:1018B8000B46FB70FB78002B0CD04FF46053C4F23E
:1018C80002034FF46052C4F2020251697A680A4373
:1018D8005A610DE04FF46053C4F202034FF46052B2
:1018E800C4F2020251697A686FEA02020A405A6138
:1018F80007F10C07BD4680BC704700BF80B483B0B9
:1019080000AF78600B46FB70FB78002B0CD04FF4CF
:101918006053C4F202034FF46052C4F202029169A8
:101928007A680A439A610DE04FF46053C4F20203E7
:101938004FF46052C4F2020291697A686FEA0202B7
:101948000A409A6107F10C07BD4680BC704700BF8A
:1019580080B483B000AF78600B46FB70FB78002B37
:101968000CD04FF46053C4F202034FF46052C4F237
:101978000202116A7A680A431A620DE04FF4605352
:10198800C4F202034FF46052C4F20202116A7A6888
:101998006FEA02020A401A6207F10C07BD4680BCD2
:1019A800704700BF80B483B000AF78600B46FB700F
:1019B800FB78002B0CD04FF46053C4F202034FF4B1
:1019C8006052C4F20202516A7A680A435A620DE010
:1019D8004FF46053C4F202034FF46052C4F202029F
:1019E800516A7A686FEA02020A405A6207F10C07E4
:1019F800BD4680BC704700BF80B483B000AF78603C
:101A08000B46FB70FB78002B0CD04FF46053C4F2EC
:101A180002034FF46052C4F20202116D7A680A435D
:101A28001A650DE04FF46053C4F202034FF460529C
:101A3800C4F20202116D7A686FEA02020A401A655E
:101A480007F10C07BD4680BC704700BF80B483B067
:101A580000AF78600B46FB70FB78002B0CD04FF47E
:101A68006053C4F202034FF46052C4F20202516D93
:101A78007A680A435A650DE04FF46053C4F20203D2
:101A88004FF46052C4F20202516D7A686FEA0202A2
:101A98000A405A6507F10C07BD4680BC704700BF75
:101AA80080B483B000AF78600B46FB70FB78002BE6
:101AB8000CD04FF46053C4F202034FF46052C4F2E6
:101AC8000202916D7A680A439A650DE04FF46053FB
:101AD800C4F202034FF46052C4F20202916D7A68B4
:101AE8006FEA02020A409A6507F10C07BD4680BCFE
:101AF800704700BF80B483B000AF78600B46FB70BE
:101B0800FB78002B0CD04FF46053C4F202034FF45F
:101B18006052C4F20202116E7A680A431A660DE036
:101B28004FF46053C4F202034FF46052C4F202024D
:101B3800116E7A686FEA02020A401A6607F10C070A
:101B4800BD4680BC704700BF80B483B000AF7860EA
:101B58000B46FB70FB78002B0CD04FF46053C4F29B
:101B680002034FF46052C4F20202516E7A680A43CB
:101B78005A660DE04FF46053C4F202034FF460520A
:101B8800C4F20202516E7A686FEA02020A405A668B
:101B980007F10C07BD4680BC704700BF80B483B016
:101BA80000AF02460B46FA71BB71BB79002B0ED011
:101BB80043F60D03C4F2020343F60D02C4F2020217
:101BC8001278D1B2FA790A43D2B21A7010E043F609
:101BD8000D03C4F2020343F60D02C4F202021278A6
:101BE800D1B2FA796FEA0202D2B20A40D2B21A70BE
:101BF80007F10C07BD4680BC704700BF80B487B0B2
:101C080000AF0346FB714FF00003FB604FF0000389
:101C18007B614FF00003FB74FB794FEA5313DBB28F
:101C2800FB60FB68012B06D14FF46053C4F202033A
:101C38001B687B610FE0FB68022B06D14FF46053F1
:101C4800C4F202031B6F7B6105E04FF46053C4F2DA
:101C580002035B6F7B61FB7903F01F03FB60FB688A
:101C68007A6922FA03F303F00103DBB2002B03D0F5
:101C78004FF00103FB7402E04FF00003FB74FB7CA0
:101C8800184607F11C07BD4680BC704780B400AFFA
:101C98004FF46053C4F202034FF46052C4F20202DC
:101CA800526F42F080725A67BD4680BC704700BFD1
:101CB80080B485B000AF0346FB714FF00003FB739F
:101CC8004FF46053C4F20203DA68FB791340002B27
:101CD80003D04FF00103FB7302E04FF00003FB73E6
:101CE800FB7B184607F11407BD4680BC704700BF50
:101CF80080B483B000AF0346FB7143F60E03C4F211
:101D08000203FA791A7007F10C07BD4680BC7047C8
:101D180080B582B000AF78607A684FF48053C4F21F
:101D280001039A420CD14FF010004FF00101FFF768
:101D380039FE4FF010004FF00001FFF733FE62E06C
:101D48007A684FF48843C4F200039A420CD14FF4E6
:101D580000304FF00101FFF7FBFD4FF400304FF06A
:101D68000001FFF7F5FD4EE07A684FF49043C4F2A6
:101D780000039A420CD14FF480204FF00101FFF785
:101D8800E7FD4FF480204FF00001FFF7E1FD3AE056
:101D98007A684FF49843C4F200039A420CD14FF486
:101DA80000204FF00101FFF7D3FD4FF400204FF062
:101DB8000001FFF7CDFD26E07A684FF4A043C4F296
:101DC80000039A420CD14FF480104FF00101FFF745
:101DD800BFFD4FF480104FF00001FFF7B9FD12E08E
:101DE8007A684FF4A053C4F201039A420BD14FF022
:101DF80020004FF00101FFF7D5FD4FF020004FF014
:101E08000001FFF7CFFD07F10807BD4680BD00BF01
:101E180080B58AB000AF786039604FF000037B620C
:101E28004FF000033B624FF00003FB614FF00003EB
:101E3800BB617B681B8A9BB27B627B6A23F440533D
:101E48007B623B68DB887A6A13437B627B6A9AB25F
:101E58007B681A827B689B899BB27B627B6A23F4CE
:101E6800B05323F00C037B623B689A883B681B895C
:101E780013439AB23B685B8913439BB27A6A134354
:101E88007B627B6A9AB27B689A817B689B8A9BB2E9
:101E98007B627B6A23F440737B623B689B897A6A26
:101EA80013437B627B6A9AB27B689A8207F10803C4
:101EB8001846FFF7ADFA7A684FF48053C4F201036D
:101EC8009A4206D07A684FF4A053C4F201039A42AA
:101ED80002D17B693B6201E03B693B627B689B897D
:101EE8009BB29BB21BB2002B0FDA3A6A13464FEA39
:101EF80083039B184FEA83029A183B681B684FEAD2
:101F08004303B2FBF3F3FB610EE03A6A13464FEA70
:101F180083039B184FEA83029A183B681B684FEAB1
:101F28008303B2FBF3F3FB61FA6948F21F53C5F26E
:101F3800EB13A3FB02134FEA53134FEA03137B621D
:101F48007B6A4FEA13134FF0640202FB03F3FA694A
:101F5800D31ABB617B689B899BB29BB21BB2002BD7
:101F680012DABB694FEAC30303F1320248F21F5386
:101F7800C5F2EB13A3FB02134FEA531303F0070355
:101F88007A6A13437B6211E0BB694FEA031303F1DA
:101F9800320248F21F53C5F2EB13A3FB02134FEAB8
:101FA800531303F00F037A6A13437B627B6A9AB276
:101FB8007B681A8107F12807BD4680BD80B483B0CD
:101FC80000AF78607B684FF416521A607B684FF058
:101FD80000029A807B684FF00002DA807B684FF03D
:101FE80000021A817B684FF00C025A817B684FF01F
:101FF80000029A8107F10C07BD4680BC704700BFFC
:1020080080B485B000AF786039604FF00003FB60A2
:102018007B681B8A9BB2FB60FB6823F47063FB60E0
:102028003B681A883B685B8813439AB23B689B8875
:1020380013439AB23B68DB8813439BB2FA68134395
:10204800FB60FB689AB27B681A8207F11407BD46E9
:1020580080BC704780B483B000AF78607B684FF075
:1020680000021A807B684FF000025A807B684FF0AC
:1020780000029A807B684FF00002DA8007F10C07B3
:10208800BD4680BC704700BF80B483B000AF7860A5
:102098000B46FB70FB78002B08D07B689B899BB2B2
:1020A80043F400539AB27B689A8107E07B689B8966
:1020B8009BB223F400539AB27B689A8107F10C070C
:1020C800BD4680BC704700BF80B483B000AF786065
:1020D8000B46FB707B681B8B9BB223F0FF039AB205
:1020E8007B681A837B681B8B9AB2FB789BB213437D
:1020F8009AB27B681A8307F10C07BD4680BC70470B
:1021080080B483B000AF78600B46FB70FB78002B7F
:102118000AD07B689B899BB26FEA43436FEA5343BB
:102128009AB27B689A8109E07B689B899BB24FEAE7
:1021380043434FEA53439AB27B689A8107F10C07ED
:10214800BD4680BC704700BF80B483B000AF7860E4
:102158000B46FB70FB78002B08D07B689B8A9BB2F0
:1021680043F400639AB27B689A8207E07B689B8A93
:102178009BB223F400639AB27B689A8207F10C073A
:10218800BD4680BC704700BF80B483B000AF7860A4
:102198000B467B807B884FEAC3534FEAD3539AB2EE
:1021A8007B689A8007F10C07BD4680BC704700BF6A
:1021B80080B483B000AF78607B689B889BB24FEA9D
:1021C800C3534FEAD3539BB2184607F10C07BD46D9
:1021D80080BC704780B483B000AF78600B46FB705A
:1021E8007B681B8A9BB223F00F039AB27B681A8222
:1021F8007B681B8A9AB2FB789BB213439AB27B68BE
:102208001A8207F10C07BD4680BC704780B483B0C2
:1022180000AF78600B46FB70FB78002B08D07B681A
:102228009B899BB243F002039AB27B689A8107E0CC
:102238007B689B899BB223F002039AB27B689A81E0
:1022480007F10C07BD4680BC704700BF80B483B05F
:1022580000AF78600B467B807B689B899BB223F438
:1022680000639AB27B689A817B689B899AB27B8863
:1022780013439AB27B689A8107F10C07BD4680BC6C
:10228800704700BF80B483B000AF78600B467B8096
:102298007B681B8A9BB223F020039AB27B681A8260
:1022A8007B681B8A9AB27B8813439AB27B681A822E
:1022B80007F10C07BD4680BC704700BF80B483B0EF
:1022C80000AF78600B46FB70FB78002B08D07B686A
:1022D8001B8A9BB243F480439AB27B681A8207E058
:1022E8007B681B8A9BB223F480439AB27B681A826C
:1022F80007F10C07BD4680BC704700BF80B483B0AF
:1023080000AF78607B689B899BB243F001039AB267
:102318007B689A8107F10C07BD4680BC704700BFF7
:1023280080B483B000AF78600B46FB70FB78002B5D
:1023380008D07B689B8A9BB243F008039AB27B68FB
:102348009A8207E07B689B8A9BB223F008039AB2C3
:102358007B689A8207F10C07BD4680BC704700BFB6
:1023680080B483B000AF78600B46FB707B681B8B32
:102378009BB2DBB29AB27B681A837B681B8B9AB2DA
:10238800FB789BB24FEA03239BB213439AB27B6854
:102398001A8307F10C07BD4680BC704780B483B030
:1023A80000AF78600B46FB70FB78002B08D07B6889
:1023B8009B8A9BB243F020039AB27B689A8207E01B
:1023C8007B689B8A9BB223F020039AB27B689A822F
:1023D80007F10C07BD4680BC704700BF80B483B0CE
:1023E80000AF78600B46FB70FB78002B08D07B6849
:1023F8009B8A9BB243F010039AB27B689A8207E0EB
:102408007B689B8A9BB223F010039AB27B689A82FE
:1024180007F10C07BD4680BC704700BF80B483B08D
:1024280000AF78600B467B807B689B8A9BB223F069
:1024380004039AB27B689A827B689B8A9AB27B88EB
:1024480013439AB27B689A8207F10C07BD4680BC99
:10245800704700BF80B483B000AF78600B46FB7054
:10246800FB78002B08D07B689B8A9BB243F0020361
:102478009AB27B689A8207E07B689B8A9BB223F0BA
:1024880002039AB27B689A8207F10C07BD4680BCAA
:10249800704700BF80B483B000AF786013460A4627
:1024A8007A807B707B78002B08D07B689B8A9AB2F5
:1024B8007B8813439AB27B689A820AE07B689B8A7E
:1024C8009AB27B886FEA03039BB213409AB27B6887
:1024D8009A8207F10C07BD4680BC704780B487B06C
:1024E80000AF786013460A467A807B704FF000038D
:1024F8003B614FF00003FB604FF00003BB604FF0FF
:1025080000037B617B687B617B88DBB24FEA5313F6
:10251800DBB23B617B8803F01F03FB60FB684FF075
:10252800010202FA03F3BB603B69012B04D17B690A
:1025380003F10C037B610BE03B69022B04D17B693F
:1025480003F110037B6103E07B6903F114037B61F2
:102558007B78002B06D07B697A691168BA680A43D0
:102568001A6007E07B697A691168BA686FEA020243
:102578000A401A6007F11C07BD4680BC704700BFBF
:1025880080B485B000AF78600B467B804FF00003C5
:10259800FB737B681B889AB27B8813409BB2002B25
:1025A80003D04FF00103FB7302E04FF00003FB730D
:1025B800FB7B184607F11407BD4680BC704700BF77
:1025C80080B483B000AF78600B467B807B886FEA6D
:1025D80003039AB27B681A8007F10C07BD4680BCDA
:1025E800704700BF80B487B000AF78600B467B802F
:1025F8004FF00003FB604FF000037B614FF00003D6
:10260800BB604FF00003FB747B88DBB24FEA5313C7
:10261800DBB2BB607B8803F01F037B617B694FF0F3
:10262800010202FA03F37B61BB68012B06D17B68C8
:102638009B899BB27A6913407B610FE0BB68022BD0
:1026480006D17B681B8A9BB27A6913407B6105E0DF
:102658007B689B8A9BB27A6913407B617B884FEACF
:1026680013239BB2FB60FB684FF0010202FA03F3ED
:10267800FB607B681B889BB2FA681340FB607B6930
:10268800002B06D0FB68002B03D04FF00103FB742E
:1026980002E04FF00003FB74FB7C184607F11C07AF
:1026A800BD4680BC704700BF80B485B000AF78607D
:1026B8000B467B804FF00003FB814FF00003BB818A
:1026C8007B884FEA1323FB81FB894FF0010202FA52
:1026D80003F3BB81BB896FEA03039AB27B681A8054
:1026E80007F11407BD4680BC704700BF80B483B0B3
:1026F80000AF78604FF47053C4F202037A68D2B224
:102708001A7007F10C07BD4680BC704780B483B0CF
:1027180000AF0346FB71FB79002B0CD04FF47053CC
:10272800C4F202034FF47052C4F20202126842F477
:1027380080721A600BE04FF47053C4F202034FF436
:102748007052C4F20202126822F480721A6007F111
:102758000C07BD4680BC704780B483B000AF034609
:10276800FB71FB79002B0CD04FF47053C4F20203B9
:102778004FF47052C4F20202126842F400721A60F6
:102788000BE04FF47053C4F202034FF47052C4F2DA
:102798000202126822F400721A6007F10C07BD46A3
:1027A80080BC704780B483B000AF0346FB71FB79EF
:1027B800002B0CD04FF47053C4F202034FF4705244
:1027C800C4F20202126842F480621A600BE04FF40D
:1027D8007053C4F202034FF47052C4F2020212683A
:1027E80022F480621A6007F10C07BD4680BC70476E
:1027F80080B400AF4FF47053C4F202034FF4705228
:10280800C4F20202126842F400621A60BD4680BC3B
:10281800704700BF80B400AF4FF47053C4F2020396
:102828004FF47052C4F20202126842F480521A60E5
:10283800BD4680BC704700BF80B400AF4FF47053F2
:10284800C4F202031B69002B11DA4FF47053C4F26F
:10285800020340F22312C4F267525A604FF47053D5
:10286800C4F2020348F6AB12CCF6EF525A60BD46EA
:1028780080BC704780B400AF4FF47053C4F20203B9
:102888004FF47052C4F20202126942F000421A6117
:10289800BD4680BC704700BF80B584B000AF78608B
:1028A8000B46FB704FF00003FB604FF00803FB7210
:1028B800FB78002B03D14FF00003FB6010E0FB789E
:1028C800012B03D14FF48073FB6009E0FB78022BE6
:1028D80003D14FF40073FB6002E04FF44073FB60D8
:1028E80000F0ECFB0346FB72FB7A082B59D14FF43E
:1028F8007053C4F202034FF47052C4F20202126918
:1029080022F440721A614FF47053C4F202034FF478
:102918007052C4F202021169FA680A431A614FF44C
:102928007053C4F202034FF47052C4F202021269E7
:1029380022F0F8021A614FF47053C4F202034FF404
:102948007052C4F2020211697A680A4342F0020224
:102958001A614FF47053C4F202034FF47052C4F278
:102968000202126942F480321A6100F0A7FB0346A2
:10297800FB724FF47053C4F202034FF47052C4F266
:102988000202126922F002021A614FF47053C4F273
:1029980002034FF47052C4F20202126922F0F802E4
:1029A8001A61FB7A184607F11007BD4680BD00BFC3
:1029B80080B584B000AF0346FB714FF00003FB60A5
:1029C8004FF00803FB7200F079FB0346FB72FB79BA
:1029D800002B03D14FF00003FB6010E0FB79012BC3
:1029E80003D14FF48073FB6009E0FB79022B03D11C
:1029F8004FF40073FB6002E04FF44073FB60FB7A16
:102A0800082B3FD14FF47053C4F202034FF47052B5
:102A1800C4F20202126922F440721A614FF4705330
:102A2800C4F202034FF47052C4F202021169FA6848
:102A38000A431A614FF47053C4F202034FF4705200
:102A4800C4F20202126942F004021A614FF4705390
:102A5800C4F202034FF47052C4F20202126942F443
:102A680080321A6100F02AFB0346FB724FF4705360
:102A7800C4F202034FF47052C4F20202126922F047
:102A880004021A61FB7A184607F11007BD4680BD9B
:102A980080B586B000AFF860C7E900234FF008039F
:102AA800FB7500F00BFB0346FB75FB7D082B38D14B
:102AB8004FF47053C4F202034FF47052C4F202028E
:102AC800126922F440721A614FF47053C4F202037F
:102AD8004FF47052C4F20202126942F440721A6151
:102AE8004FF47053C4F202034FF47052C4F202025E
:102AF800126942F001021A61F968D7E90023C1E9B5
:102B0800002300F0DBFA0346FB754FF47053C4F260
:102B180002034FF47052C4F20202126922F0010259
:102B28001A61FB7D184607F11807BD4680BD00BF36
:102B380080B584B000AF786039604FF00803FB734C
:102B480000F0BCFA0346FB73FB7B082B36D14FF42D
:102B58007053C4F202034FF47052C4F202021269B5
:102B680022F440721A614FF47053C4F202034FF416
:102B78007052C4F20202126942F400721A614FF4F0
:102B88007053C4F202034FF47052C4F20202126985
:102B980042F001021A617B683A681A6000F08EFA06
:102BA8000346FB734FF47053C4F202034FF47052A0
:102BB800C4F20202126922F001021A61FB7B184674
:102BC80007F11007BD4680BD80B584B000AF7860BE
:102BD8000B467B804FF00803FB7300F06FFA034647
:102BE800FB73FB7B082B36D14FF47053C4F20203FE
:102BF8004FF47052C4F20202126922F440721A6150
:102C08004FF47053C4F202034FF47052C4F202023C
:102C1800126942F480721A614FF47053C4F20203CD
:102C28004FF47052C4F20202126942F001021A61B2
:102C38007B687A881A8000F041FA0346FB734FF4E8
:102C48007053C4F202034FF47052C4F202021269C4
:102C580022F001021A61FB7B184607F11007BD46F6
:102C680080BD00BF80B584B000AF78600B46FB70B4
:102C78004FF00803FB7300F021FA0346FB73FB7B5C
:102C8800082B34D14FF47053C4F202034FF470523E
:102C9800C4F20202126922F440721A614FF47053AE
:102CA800C4F202034FF47052C4F2020212691A61AC
:102CB8004FF47053C4F202034FF47052C4F202028C
:102CC800126942F001021A617B68FA781A7000F002
:102CD800F5F90346FB734FF47053C4F202034FF443
:102CE8007052C4F20202126922F001021A61FB7BDF
:102CF800184607F11007BD4680BD00BF80B400AF7D
:102D08004FF47053C4F202035B6903F00103DBB2B2
:102D1800002B11D04FF47053C4F2020342F63B2249
:102D2800C0F619029A604FF47053C4F2020346F6D3
:102D38007F62C4F65D429A60BD4680BC704700BFA2
:102D480080B400AF4FF47053C4F202034FF47052D2
:102D5800C4F20202526942F001025A61BD4680BCC7
:102D6800704700BF80B584B000AF78600B46FB7039
:102D78004FF00803FB7300F0A1F90346FB73FB7BDC
:102D8800082B24D1FB78002B12D043F61643C4F24B
:102D9800020343F61642C4F20202128891B27A681C
:102DA80092B26FEA020292B20A4092B21A800EE020
:102DB80043F61643C4F2020343F61642C4F2020273
:102DC800128891B27A6892B20A4392B21A8007F1D5
:102DD8001007BD4680BD00BF80B584B000AF034674
:102DE800FB714FF00803FB7300F068F90346FB73AF
:102DF800FB7B082B05D143F61543C4F20203FA798D
:102E08001A7007F11007BD4680BD00BF80B584B0B9
:102E180000AF13460246FA710A46BA717B714FF049
:102E2800FF03FB734FF00803BB7300F047F9034639
:102E3800BB73BB7B082B17D143F61443C4F20203C0
:102E48001B78DBB203F00F03FB7343F61443C4F2A1
:102E58000203B979FA7B0A43D1B27A790A43D1B22B
:102E6800FA790A43D2B21A7007F11007BD4680BD3D
:102E780080B483B000AF0346FB7143F61443C4F239
:102E8800020343F61442C4F202021278D2B222F0CC
:102E98000C02D2B21A7043F61443C4F2020343F68A
:102EA8001442C4F202021278D1B2FA790A43D2B2B9
:102EB8001A7007F10C07BD4680BC704780B582B018
:102EC80000AF4FF00803FB7143F61443C4F202034A
:102ED80043F61442C4F202021278D2B242F002025D
:102EE800D2B21A7000F0EAF80346FB71FB79184673
:102EF80007F10807BD4680BD80B400AF4FF470539A
:102F0800C4F202035B694FEA5313DBB21846BD46AD
:102F180080BC704780B400AF43F61643C4F2020386
:102F28001B889BB21846BD4680BC704780B483B0EE
:102F380000AF4FF00003FB7143F61543C4F20203E0
:102F48001B78DBB2AA2B03D04FF00103FB7102E020
:102F58004FF00003FB71FB79184607F10C07BD46DB
:102F680080BC704780B400AF43F61443C4F2020338
:102F78001B78DBB203F00C03DBB21846BD4680BCFD
:102F8800704700BF80B483B000AF78600B46FB7019
:102F9800FB78002B0CD04FF47053C4F202034FF4AB
:102FA8007052C4F2020211697A680A431A610DE08C
:102FB8004FF47053C4F202034FF47052C4F2020289
:102FC80011697A686FEA02020A401A6107F10C0770
:102FD800BD4680BC704700BF80B485B000AF786044
:102FE8004FF00003FB734FF47053C4F20203DA6826
:102FF8007B681340002B03D04FF00103FB7302E002
:103008004FF00003FB73FB7B184607F11407BD461E
:1030180080BC704780B483B000AF78604FF47053C1
:10302800C4F202037A68DA6007F10C07BD4680BC77
:10303800704700BF80B483B000AF4FF00803FB7146
:103048004FF47053C4F20203DB6803F48033002B9F
:1030580003D04FF00103FB7129E04FF47053C4F221
:103068000203DB6803F01003002B03D04FF00503C5
:10307800FB711CE04FF47053C4F20203DB6803F0E9
:10308800EF03002B03D04FF00603FB710FE04FF462
:103098007053C4F20203DB6803F00203002B03D071
:1030A8004FF00703FB7102E04FF00803FB71FB7957
:1030B800184607F10C07BD4680BC704780B582B042
:1030C80000AF4FF00803FB71FFF7B4FF0346FB7135
:1030D80003E0FFF7AFFF0346FB71FB79DBB2012B7F
:1030E800F7D0FB79DBB2184607F10807BD4680BD6B
:1030F800B031000800000020280000202C0000202B
:10310800D0000020002100F004B80F4B5B5843505A
:1031180004310E480E4B42189A42FFF4F6AF0D4A9E
:1031280000F003B8002342F8043B0B4B9A42FFF42B
:10313800F9AF0A48016841F470010160FDF7A6F98A
:10314800FDF742F970470000B03100080000002088
:10315800280000202C000020D000002088ED00E08E
:10316800FFF7FEBF496E697420636F6D706C6574FC
:1031780065212048656C6C6F20576F726C64210D57
:103188000A00000000000000F8B500BFF8BC08BC49
:103198009E467047F8B500BFF8BC08BC9E4670470D
:0431A800B501000865
:0431AC00890100088D
:1031B00000000000007A030A000000000000000088
:1031C00001020304060708090000000001020304CD
:0831D0000102030406070809CF
:0431D80000000000F3
:040000050800310DB1
:00000001FF
